{
  "contractName": "StampProofs",
  "abi": [
    {
      "inputs": [],
      "payable": false,
      "stateMutability": "nonpayable",
      "type": "constructor"
    },
    {
      "anonymous": false,
      "inputs": [
        {
          "indexed": true,
          "name": "hash",
          "type": "bytes32"
        },
        {
          "indexed": false,
          "name": "timestamp",
          "type": "uint256"
        }
      ],
      "name": "stampProof",
      "type": "event"
    },
    {
      "constant": false,
      "inputs": [
        {
          "name": "hash",
          "type": "bytes32"
        }
      ],
      "name": "setProof",
      "outputs": [],
      "payable": false,
      "stateMutability": "nonpayable",
      "type": "function"
    }
  ],
  "bytecode": "0x608060405234801561001057600080fd5b5060dd8061001f6000396000f300608060405260043610603f576000357c0100000000000000000000000000000000000000000000000000000000900463ffffffff168063ebe90e43146044575b600080fd5b348015604f57600080fd5b50607060048036038101908080356000191690602001909291905050506072565b005b80600019167f6181541c791b3ff0c14a905aceeaf7811eab817d5e33bf538cfe6303cfae6372426040518082815260200191505060405180910390a2505600a165627a7a723058207534c8919e03b176d1a1fd3b922c1f6537070bd073c772d70ba5480950d2f3ec0029",
  "source": "pragma solidity ^0.4.25;\n\ncontract StampProofs {\n    // mapping(uint256 => bytes32) private stampProofs;\n    event stampProof(bytes32 indexed hash, uint256 timestamp);\n\n    constructor() public {}\n\n    function setProof(bytes32 hash) public{\n        // stampProofs[id] = hash;\n        emit stampProof(hash, block.timestamp);\n    } \n}",
  "sourcePath": "contracts/proofs/StampProofs.sol",
  "compiler": {
    "name": "solc",
    "version": "0.4.25+commit.59dbf8f1.Emscripten.clang"
  },
  "schemaVersion": "3.3.1",
  "updatedAt": "2020-11-01T16:00:57.027Z",
  "networkType": "ethereum",
  "devdoc": {
    "methods": {}
  },
  "userdoc": {
    "methods": {}
  }
}